{
  "contractName": "simpleSetGet",
  "abi": [
    {
      "constant": true,
      "inputs": [],
      "name": "name",
      "outputs": [
        {
          "name": "",
          "type": "string"
        }
      ],
      "payable": false,
      "stateMutability": "view",
      "type": "function"
    },
    {
      "constant": false,
      "inputs": [
        {
          "name": "_name",
          "type": "string"
        }
      ],
      "name": "setName",
      "outputs": [
        {
          "name": "",
          "type": "bool"
        }
      ],
      "payable": false,
      "stateMutability": "nonpayable",
      "type": "function"
    },
    {
      "constant": true,
      "inputs": [],
      "name": "getName",
      "outputs": [
        {
          "name": "",
          "type": "string"
        }
      ],
      "payable": false,
      "stateMutability": "view",
      "type": "function"
    }
  ],
  "bytecode": "0x608060405234801561001057600080fd5b50610430806100206000396000f300608060405260043610610057576000357c0100000000000000000000000000000000000000000000000000000000900463ffffffff16806306fdde031461005c57806317d7de7c146100ec578063c47f00271461017c575b600080fd5b34801561006857600080fd5b506100716101fd565b6040518080602001828103825283818151815260200191508051906020019080838360005b838110156100b1578082015181840152602081019050610096565b50505050905090810190601f1680156100de5780820380516001836020036101000a031916815260200191505b509250505060405180910390f35b3480156100f857600080fd5b5061010161029b565b6040518080602001828103825283818151815260200191508051906020019080838360005b83811015610141578082015181840152602081019050610126565b50505050905090810190601f16801561016e5780820380516001836020036101000a031916815260200191505b509250505060405180910390f35b34801561018857600080fd5b506101e3600480360381019080803590602001908201803590602001908080601f016020809104026020016040519081016040528093929190818152602001838380828437820191505050505050919291929050505061033d565b604051808215151515815260200191505060405180910390f35b60008054600181600116156101000203166002900480601f0160208091040260200160405190810160405280929190818152602001828054600181600116156101000203166002900480156102935780601f1061026857610100808354040283529160200191610293565b820191906000526020600020905b81548152906001019060200180831161027657829003601f168201915b505050505081565b606060008054600181600116156101000203166002900480601f0160208091040260200160405190810160405280929190818152602001828054600181600116156101000203166002900480156103335780601f1061030857610100808354040283529160200191610333565b820191906000526020600020905b81548152906001019060200180831161031657829003601f168201915b5050505050905090565b6000816000908051906020019061035592919061035f565b5060019050919050565b828054600181600116156101000203166002900490600052602060002090601f016020900481019282601f106103a057805160ff19168380011785556103ce565b828001600101855582156103ce579182015b828111156103cd5782518255916020019190600101906103b2565b5b5090506103db91906103df565b5090565b61040191905b808211156103fd5760008160009055506001016103e5565b5090565b905600a165627a7a7230582046e58923b2b679ba77906f83e60599b2efd222b11db77ab120198b6b5329b2060029",
  "source": "pragma solidity ^0.4.21;\n\ncontract simpleSetGet{\n    \n    string public name;\n    \n    function setName(string _name) public returns (bool){\n        name = _name;\n        return true;\n    }\n    \n    function getName() public view returns(string){\n        return name;\n    }\n}",
  "sourcePath": "/home/surajit/Github/Truffle/simpleSetGet/contracts/simpleSetGet.sol",
  "compiler": {
    "name": "solc",
    "version": "0.4.23+commit.124ca40d.Emscripten.clang"
  },
  "schemaVersion": "2.0.0",
  "updatedAt": "2018-09-09T16:59:45.116Z"
}